S0110000554152545F636F64652E73726563DD
S11300000C9434000C9449000C9449000C9449005D
S11300100C9449000C9449000C9449000C94490038
S11300200C9449000C9449000C9449000C94490028
S11300300C9449000C9449000C9449000C94490018
S11300400C9449000C9449000C9449000C94490008
S11300500C9449000C9449000C9449000C944900F8
S11300600C9449000C94490011241FBECFEFD8E032
S1130070DEBFCDBF11E0A0E0B1E0EAEFF0E002C0E6
S113008005900D92A031B107D9F70E946B000C9432
S11300907B000C9400001092C50087E68093C40096
S11300A088E08093C10086E08093C2000895909117
S11300B0C00095FFFCCF8093C6000895CF93DF93D3
S11300C0EC0103C021960E94570088818111FACF68
S11300D0DF91CF9108950E944B0080E091E00E944F
S11300E05E002FE38DE093E0215080409040E1F7E3
S10D00F000C00000F2CFF894FFCF27
S11300FA48656C6C6F2C2055415254210D0A00003E
S9030000FC
