S010000041746D656C50574D2E737265632D
S11300000C9434000C943E000C943E000C943E007E
S11300100C943E000C943E000C943E000C943E0064
S11300200C943E000C943E000C943E000C943E0054
S11300300C943E000C943E000C943E000C943E0044
S11300400C943E000C943E000C943E000C943E0034
S11300500C943E000C943E000C943E000C943E0024
S11300600C943E000C943E0011241FBECFEFD8E048
S1130070DEBFCDBF0E944A000C9459000C940000CE
S113008083E884BD81E085BD84B1806284B908952C
S113009087BD08950E9440008EE10E9448002FEF22
S11300A083ED90E3215080409040E1F700C00000D0
S10900B0F3CFF894FFCF2A
S9030000FC
