S01200004932435F4D61737465722E7372656389
S11300000C9434000C943E000C943E000C943E007E
S11300100C943E000C943E000C943E000C943E0064
S11300200C943E000C943E000C943E000C943E0054
S11300300C943E000C943E000C943E000C943E0044
S11300400C943E000C943E000C943E000C943E0034
S11300500C943E000C943E000C943E000C943E0024
S11300600C943E000C943E0011241FBECFEFD8E048
S1130070DEBFCDBF0E9463000C9488000C94000086
S11300801092B90088E48093B80084E08093BC00A7
S1130090089584EA8093BC008091BC008823E4F72F
S11300A008958093BB0084E88093BC008091BC00D9
S11300B08823E4F7089584E98093BC008091BC0010
S11300C084FDFCCF08950E9440000E94490080E214
S11300D00E94510088E40E94510085E60E9451006C
S11300E08CE60E9451008CE60E9451008FE60E942B
S11300F0510081E20E9451000E945B002FE38DE0D9
S113010093E0215080409040E1F700C00000DDCF33
S1070110F894FFCF8D
S9030000FC
