:100000000C9434000C9448000C9446000C94460068
:100010000C9446000C9446000C9446000C94460048
:100020000C9446000C9446000C9446000C94460038
:100030000C9446000C9446000C9446000C94460028
:100040000C9446000C9446000C9446000C94460018
:100050000C9446000C9446000C9446000C94460008
:100060000C9446000C94460011241FBECFEFD8E03C
:10007000DEBFCDBF21E0A0E0B1E001C01D92A13004
:10008000B207E1F70E9465000C9484000C94000014
:100090001F920F920FB60F9211248F9381E08093DD
:1000A00000018F910F900FBE0F901F9018958DB388
:1000B00081608DBBE9E6F0E080818360808383B757
:1000C000817F846083BF789408950E94570083B72E
:1000D000816083BF889583B78E7F83BF8091000145
:1000E0008823A9F31092000185B1806285B92FEFB2
:1000F00083ED90E3215080409040E1F700C0000084
:0C01000085B18F7D85B9E3CFF894FFCF67
:00000001FF
