S011000041746D656C554152542E73726563E4
S11300000C9434000C9449000C9449000C9449005D
S11300100C9449000C9449000C9449000C94490038
S11300200C9449000C9449000C9449000C94490028
S11300300C9449000C9449000C9449000C94490018
S11300400C9449000C9449000C9449000C94490008
S11300500C9449000C9449000C9449000C944900F8
S11300600C9449000C94490011241FBECFEFD8E032
S1130070DEBFCDBF11E0A0E0B1E0E6E5F1E002C0F3
S113008005900D92AC30B107D9F70E9475000C941D
S1130090A9000C9400009C0140E050E060E472E48C
S11300A08FE090E00E948700215031093093C50011
S11300B02093C40088E08093C10086E08093C2004E
S11300C008959091C00095FFFCCF8093C6000895D9
S11300D0CF93DF93EC0103C021960E9461008881D5
S11300E08111FACFDF91CF91089580E895E20E94C3
S11300F04B0080E091E00E9468002FEF83ED90E3D5
S1130100215080409040E1F700C00000F2CFA1E20E
S11301101A2EAA1BBB1BFD010DC0AA1FBB1FEE1F7D
S1130120FF1FA217B307E407F50720F0A21BB30BC8
S1130130E40BF50B661F771F881F991F1A9469F744
S113014060957095809590959B01AC01BD01CF01A0
S10901500895F894FFCFAE
S10F01564F6C61206A6F76656E730A00BE
S9030000FC
