:100000000C9434000C943E000C943E000C943E0082
:100010000C943E000C943E000C943E000C943E0068
:100020000C943E000C943E000C943E000C943E0058
:100030000C943E000C943E000C943E000C943E0048
:100040000C943E000C943E000C943E000C943E0038
:100050000C943E000C943E000C943E000C943E0028
:100060000C943E000C943E0011241FBECFEFD8E04C
:10007000DEBFCDBF0E944E000C9457000C940000D0
:10008000880F8093BA0084EC8093BC00089580911F
:10009000BC008823E4F78091BB00089580E10E94B2
:1000A000400084EC8093BC000E944700FACFF89493
:0200B000FFCF80
:00000001FF
