S010000041746D656C4953522E7372656333
S11300000C9434000C943E000C943E000C943E007E
S11300100C943E000C943E000C943E000C943E0064
S11300200C943E000C943E000C943E000C9454003E
S11300300C943E000C943E000C943E000C943E0044
S11300400C943E000C943E000C943E000C943E0034
S11300500C943E000C943E000C943E000C943E0024
S11300600C943E000C943E0011241FBECFEFD8E048
S1130070DEBFCDBF0E9466000C946D000C9400009E
S1130080E1E8F0E0808188608083808185608083FE
S113009088E09DE39093890080938800EFE6F0E088
S11300A080818260808308951F920F920FB60F9211
S11300B011248F939F9395B180E2892785B99F91ED
S11300C08F910F900FBE0F901F90189584B180628E
S11100D084B90E9440007894FFCFF894FFCFCB
S9030000FC
