S014000050574D447574794379636C652E7372656386
S11300000C9434000C943E000C943E000C943E007E
S11300100C943E000C943E000C943E000C943E0064
S11300200C943E000C943E000C943E000C943E0054
S11300300C943E000C943E000C943E000C943E0044
S11300400C943E000C943E000C943E000C943E0034
S11300500C943E000C943E000C943E000C943E0024
S11300600C943E000C943E0011241FBECFEFD8E048
S1130070DEBFCDBF0E9456000C9471000C940000AA
S1130080E0EBF0E0808183688083E1EBF0E0808145
S11300908260808384B1886084B908958093B300BA
S11300A0089580E89CE00197F1F708950E944000CC
S11300B0C0E0D0E006C0CE010E944E000E94510074
S11300C02196CF3FD105BCF3CFEFD0E006C0CE01DF
S11300D00E944E000E94510021971C161D06BCF37D
S10900E0E7CFF894FFCF06
S9030000FC
