:100000000C9434000C943E000C943E000C943E0082
:100010000C943E000C943E000C943E000C943E0068
:100020000C943E000C943E000C943E000C943E0058
:100030000C943E000C943E000C943E000C943E0048
:100040000C943E000C943E000C943E000C943E0038
:100050000C943E000C943E000C943E000C943E0028
:100060000C943E000C943E0011241FBECFEFD8E04C
:10007000DEBFCDBF0E9444000C9454000C940000DD
:1000800084B1806284B908950E94400095B180E2F5
:10009000892785B92FE986E891E02150804090407A
:0C00A000E1F700C00000F2CFF894FFCFA1
:00000001FF
