:100000000C9434000C943E000C943E000C943E0082
:100010000C943E000C943E000C943E000C943E0068
:100020000C943E000C943E000C943E000C943E0058
:100030000C943E000C943E000C943E000C943E0048
:100040000C943E000C943E000C943E000C943E0038
:100050000C943E000C943E000C943E000C943E0028
:100060000C943E000C943E0011241FBECFEFD8E04C
:10007000DEBFCDBF0E9462000C9467000C940000AC
:1000800084B5836284BD85B5856085BD84B1806299
:1000900084B9089580E008C088BDEFE3FCE931979A
:1000A000F1F700C000008F5F8F3FB1F708C088BD37
:1000B000EFE3FCE93197F1F700C0000081508111B6
:1000C000F6CF08950E9440000E944A00FDCFF894A8
:0200D000FFCF60
:00000001FF
